:1000000000800020BD010000F1F00000A9F0000018
:10001000A9F00000A9F00000A9F00000A9F000007C
:10002000A9F00000A9F00000A9F00000F1F0000024
:10003000F1F00000A9F00000990601009D07010001
:10004000F1F00000F1F00000F1F00000F1F000002C
:10005000F1F00000F1F00000F1F00000F1F000001C
:10006000F1F00000F1F00000F1F00000F1F000000C
:10007000F1F00000F1F00000F1F00000F1F00000FC
:10008000F1F00000F1F00000F1F00000F1F00000EC
:10009000F1F00000F1F00000F1F00000F1F00000DC
:1000A000F1170000FD170000F1F00000F1F0000072
:1000B000F1F00000F1F00000F1F00000F1F00000BC
:1000C000F1F00000F1F00000F1F00000F1F00000AC
:1000D000F1F00000F1F00000F1F00000F1F000009C
:1000E000F1F00000F1F00000F1F00000F1F000008C
:1000F000F1F00000AD0B0100F1F00000E9F60000A6
:10010000F1F00000D90C0100F1F00000F1F0000066
:10011000F1F00000F1F00000F1F00000F1F000005B
:10012000F1F00000F1F00000F1F00000F1F000004B
:10013000F1F00000F1F00000F1F00000F1F000003B
:10014000F1F00000F1F00000F1F00000F1F000002B
:10015000F1F00000F1F00000F1F00000F1F000001B
:10016000F1F0000065F90000F1F00000F1F000008E
:10017000F1F00000F1F00000F1F00000F1F00000FB
:10018000F1F00000F1F00000F1F00000F1F00000EB
:10019000F1F00000F1F00000F1F00000F1F00000DB
:1001A000F1F00000F1F00000F1F00000F1F00000CB
:1001B000F1F00000F1F00000F1F00000564B4CF2BD
:1001C000205210B51A804DF628121A8000BF00BFC9
:1001D0000EF092FF514B4FF010621A60504A9A6035
:1001E000504ADA60504A136813F4807304D14F49BF
:1001F0000B604FF4A85313604D4B1A78110703D5C9
:100200001A7842F008021A704A4B4B492A221A7097
:100210004A4A4B4B8B4204D252F8040F43F8040B6A
:10022000F8E7484B484900228B4202D243F8042B9E
:10023000FAE74649464A002352F8230041F82300D2
:1002400001336F2BF8D1434B434A802103F8011B44
:100250009342FBD1414B3D4A1A60414B8A221A70AE
:10026000A3F5805324225A70A0221A709A7992071B
:10027000FCD59A79D406FCD43A4A937903F00C035E
:10028000082B384BF9D103221A7140225A719A79FE
:100290009006FCD5334A9179324B4906FBD5324A58
:1002A000324911600221516020221A709A7902F0BD
:1002B0000C020C2AFAD12E4B2E4A1A602E4B2F4AD2
:1002C0001A6000225A60072243F8042C2C4AC3F813
:1002D0000C2D62B60FF0DEF8144B1B68DA0705D55B
:1002E00028480FF049F8284B284A1A60284B1B78F9
:1002F0005B0609D5244C254B22689A4204D121483B
:100300000FF03AF80023236014F082F90EF0FAFEA1
:1003100010F0A6FBFEE700BF0E2005403080044031
:10032000823F04000100002B10D0034014D0034092
:1003300002D0074000E00740F097FF1FA4FA010039
:100340002087FF1FF097FF1FC4A1FF1F0082FF1F20
:100350000000000000E400E05FE400E008ED00E0E1
:100360000050064000400640448004400000030165
:1003700004800440C010050014E000E0FF76010096
:1003800000002020018FD45A1CE00340A5C3945ADA
:1003900000F00740FFFFFFFFFFFFFFFFFFFFFFFF32
:1003A000FFFFFFFFFFFFFFFFFFFFFFFFFFFFFFFF5D
:1003B000FFFFFFFFFFFFFFFFFFFFFFFFFFFFFFFF4D
:1003C000FFFFFFFFFFFFFFFFFFFFFFFFFFFFFFFF3D
:1003D000FFFFFFFFFFFFFFFFFFFFFFFFFFFFFFFF2D
:1003E000FFFFFFFFFFFFFFFFFFFFFFFFFFFFFFFF1D
:1003F000FFFFFFFFFFFFFFFFFFFFFFFFFFFFFFFF0D
:10040000FFFFFFFFFFFFFFFFFFFFFFFFDEF9FFFF23
:1004100010B5054C237833B9044B13B10448AFF33E
:1004200000800123237010BDF097FF1F0000000023
:10043000A0FA0100084B10B51BB108490848AFF3FA
:1004400000800848036803B910BD074B002BFBD0A0
:10045000BDE81040184700BF00000000F497FF1FE0
:10046000A0FA0100F097FF1F00000000F8B54FF45C
:1004700096713848384F394E394D3A4C00F0FAFDF4
:100480004FF47A71384800F0F5FD3221374800F01A
:10049000F1FD102047F8040B00210EF085FF0A2023
:1004A0000EF0C6FC3846642100F0E4FD0F2046F84B
:1004B000040B00210EF078FF0A200EF0B9FC304644
:1004C000642100F0D7FD0E2045F8040B00210EF04A
:1004D0006BFF0A200EF0ACFC6421284600F0CAFD38
:1004E000234800F05DFE4FF4247010F0C1FA21495A
:1004F000054603F0CDFB2846656007F08DF80368DC
:1005000020601B69984723681B49D3F884301B4A35
:10051000A0600124196783F8A14083F8A24083F802
:10052000A340204614700EF067FF20460EF064FFD3
:1005300044F620600FF01EF820460EF05DFF2146C5
:100540000D200EF031FF21460D48BDE8F84000F0C7
:1005500045BD00BF189BFF1FE09AFF1F109AFF1FA9
:10056000289AFF1FD49AFF1F049BFF1FF49AFF1FB6
:100570000088FF1FA0BC01000AD7A33C149BFF1FEB
:10058000389CFF1FF8B53F4E3378032B5AD8DFE86D
:1005900003F04F5A3F020FF0B3FE431C52D0B7682E
:1005A000347B394DC0B20021CAB2082312F0010FCA
:1005B00003F1FF3318BF624013F0FF034FEA52020A
:1005C000F4D10131B1F5807F05F8012FECD1002F76
:1005D00056D02E4C19461A46615C01324B40D2B2BD
:1005E00056FA83F397425B7B1146F5D8984207D1C0
:1005F000264B1A780023642A33707360B36035D0B9
:100600004FF4007200212148BDE8F84014F0C4BB4B
:100610000FF076FE421C27D072681C49531C885488
:100620007360B168174A99420CDC03231370F8BD5C
:100630000FF0A2FE002805DD0FF062FEC82801D1F0
:1006400001233370F8BD0FF097FE002808DD0FF08E
:1006500057FEB06001300B4BF4D002221A70F8BD87
:100660004FF0FF33B360F8BD7368DAE70221084842
:1006700000F0B4FC0749084A01230B701370BFE770
:100680003B46B3E7289BFF1F349BFF1F0C98FF1FBF
:10069000389CFF1F0C9AFF1F249AFF1FF0B583B0F0
:1006A000224800AF00F004FD88B1214B1B7873B1E4
:1006B0000223C822194638467B703A700FF086FE36
:1006C00002286D4606D01948AD4600F0E3FC0C3711
:1006D000BD46F0BD174E34466423002114F80C0FBC
:1006E0003B717971CAB2082312F0010F03F1FF3395
:1006F00018BF424013F0FF034FEA5202F4D1013118
:10070000B1F5807F04F8012FECD17B7996F8712048
:10071000534033440221381D5C7B0FF057FE022802
:10072000D1D120460FF0D6FECDE700BF189BFF1FAA
:100730000C9AFF1F289BFF1F08B50E4800F0B8FC5D
:1007400048B10D4B1A783AB100221A700948BDE839
:10075000084000F09FBC08BD084B09481A700121F1
:1007600000F03CFC074B034801221A70BDE808402A
:1007700000F090BC049BFF1F249AFF1F0C9AFF1FE0
:10078000389CFF1FFC87FF1F2DE9F043B84DA5B033
:10079000286800AF02680023002467213B667B665F
:1007A000926987F85D40BB66FB663B677B67BB670A
:1007B000FB67C7F88030C7F88430C7F88830C7F8BF
:1007C0008C3087F85C10904740B32B68D8699C69DF
:1007D000996BDA6BB866986DD3F840C0D3F848E0EF
:1007E000DE6C7C66B9671C6DD96DFA67C7F884004A
:1007F0001A6EA0485B697C67C7F880C0C7F86CE0D8
:100800003E67C7F88810C7F88C203B66012400F0CB
:100810004FFC48B99437BD46BDE8F083044695487F
:1008200000F046FC0028F5D0934E301D00F040FC4F
:10083000002840F03181914E301D00F039FC002835
:1008400040F0FA808E4E301D00F032FC002840F05F
:10085000CC808C4B1E78002E00F0E080DFF83482D4
:1008600098F80030002B40F0A580002C40F0298142
:1008700000220023DFF81092C7E90C23C7E90E23FA
:100880006821002300223B64C84687F8292087F8A6
:1008900050207B64BB64FB6487F8281005E00EF0F1
:1008A000EFFEC1B278480DF0C9FF0EF0D9FE002866
:1008B000F5D1754E99F86C3038463146002B72D020
:1008C0003D460DF0C9FF0FCD06F170040FC40FCDEA
:1008D0000FC495E8030044F8040B98F89130218088
:1008E000002BE2D098F89230002BDED0306F12F05F
:1008F00057FE5DA3D3E9002312F0B8FEC7E90C014F
:10090000706F12F04DFE58A3D3E9002312F0AEFE33
:10091000C7E90E01B6F97A0013F0AAFA5B4913F0A1
:10092000FBFA0446B6F9780013F0A2FA0146204615
:1009300013F0EAF93864B6F97E0013F099FA5449D5
:1009400013F0EAFA0446B6F97C0013F091FA014676
:10095000204613F0D9F97864B6F9820013F088FACA
:100960004A4913F0D9FA0446B6F9800013F080FA28
:100970000146204613F0C8F9B86496F8840013F0D5
:1009800073FA96F88C40F864C82230233846022166
:1009900087F850403A707B700FF018FD02286D46C2
:1009A00000F0CD81AD46334800F074FB9437BD466E
:1009B000BDE8F0832B681A7932B9D3F8803093F808
:1009C0002530002B7FF451AFC82205230221384681
:1009D0003A707B700FF0FAFC02286E4600F03A8203
:1009E0000023B54688F800303FE730780EF054FA1F
:1009F0008046301D00F04EFBC822042302213846F9
:100A00003A707B700FF0E2FC02286E4600F04881DD
:100A1000B5461C4B1E78002E7FF420AFC82205235C
:100A2000022138463A707B700FF0D0FC02286D46E8
:100A300000F0CA81AD461BE730780EF02DFA8046F3
:100A4000301D00F027FBC8220423022138463A70EB
:100A50007B700FF0BBFC02286E4600F0D280B546DA
:100A6000F0E600BFAFF30080000000A0F2D77A3EAE
:100A7000D49AFF1FF49AFF1FE09AFF1F109AFF1FDE
:100A8000289AFF1F149BFF1F3C9AFF1F0AD7233C85
:100A90006F12833AFC87FF1F30780EF0FDF9804615
:100AA000301D00F0F7FA0423C822022138467B707B
:100AB0003A700FF08BFC02286E46034651D0B546C3
:100AC000B9E6C8223423022107F1280087F828203C
:100AD00087F829300FF07AFC02286D46AAD18EB033
:100AE0006E466C4607F15C0C07F18C08E646BEE8E2
:100AF0000F00C64520606160A260E360F44604F127
:100B00001004F3D1D04ADEF800002060964600249D
:100B10001EF80C0FE1B2082311F0010F03F1FF33AF
:100B200018BF414013F0FF034FEA5101F4D10134E3
:100B3000B4F5807F0EF8011FECD11C46711E06F142
:100B4000330011F8013F6340134481425C7BF8D1CC
:100B5000304634210FF03AFC342800F06F81AD4666
:100B600086E66622404687F8282087F8293013F069
:100B70007FF9B64913F0D0F9B54913F0CDF913F068
:100B800091FBB14A788594464FF0000E1CF80C0F8B
:100B90005FFA8EF1082311F0010F03F1FF3318BF44
:100BA000414013F0FF034FEA5101F4D10EF1010E61
:100BB000BEF5807F0CF8011FEAD192F873E097F838
:100BC000291097F82A0097F82B308EEA010E9644E8
:100BD00004219EF80DE08EEA000E964407F12800ED
:100BE0009EF80DE08EEA03031A4492F80D800FF090
:100BF000EDFB04287FF463AF40460FF06BFCB54675
:100C000019E666220123404687F8282087F8293014
:100C100013F02EF98D4913F07FF98D4913F07CF90B
:100C200013F040FB884A788594464FF0000E1CF87C
:100C30000C0F5FFA8EF1082311F0010F03F1FF335F
:100C400018BF414013F0FF034FEA5101F4D10EF1F8
:100C5000010EBEF5807F0CF8011FEAD192F87330C7
:100C600097F8290097F82AE097F82BC058401044CD
:100C70000421407B8EEA000E964407F128009EF87E
:100C80000D308CEA03031A4492F80D800FF09EFB9E
:100C900004287FF4E4AE40460FF01CFCB546D1E5D5
:100CA00066220323404687F8282087F8293013F06E
:100CB000DFF8664913F030F9654913F02DF913F0A8
:100CC000F1FA614A788594464FF0000E1CF80C0F3B
:100CD0005FFA8EF1082311F0010F03F1FF3318BF03
:100CE000414013F0FF034FEA5101F4D10EF1010E20
:100CF000BEF5807F0CF8011FEAD192F8733097F8A7
:100D0000290097F82AE097F82BC058401044042196
:100D1000407B8EEA000E964407F128009EF80D30C5
:100D20008CEA03031A4492F80D800FF04FFB04285D
:100D30007FF46EAE40460FF0CDFBB54669E68CB051
:100D40006E46EE4607F1280C07F1580864460FCCB2
:100D50004445CEF80000CEF80410CEF80820CEF8B6
:100D60000C30A4460EF1100EF0D1374A96460024FE
:100D70001EF80C0FE1B2082311F0010F03F1FF334D
:100D800018BF414013F0FF034FEA5101F4D1013481
:100D9000B4F5807F0EF8011FECD11C46711E06F1E0
:100DA0002F0011F8013F6340134481425C7BF8D16E
:100DB000304630210FF00AFB30287FF4F3AD204697
:100DC0000FF088FBAD46EEE51F4A87F8296096468E
:100DD0004FF0690C322167231EF80C4F87F82C6006
:100DE000304687F828C087F82A1087F82B30C1B220
:100DF0000823CE0703F1FF3348BF614013F0FF0320
:100E00004FEA5101F5D10130B0F5807F0EF8011F96
:100E1000EDD107F128001C46014607F12C06692395
:100E200001E011F8013F634013448E425C7BF8D12E
:100E300005210FF0CBFA05287FF4FCAD20460FF01A
:100E400049FBAD4614E500BF289BFF1F0AD7A33B13
:100E500000007A441E4A96466923002087F828300D
:100E6000342167231EF80C5F87F8290087F82C00CF
:100E700087F82A1087F82B30C1B2082311F0010F30
:100E800003F1FF3318BF694013F0FF034FEA51012C
:100E9000F4D10130B0F5807F0EF8011FECD107F1DD
:100EA00028001D46014607F12C0E692301E011F8C8
:100EB000013F6B40134471455D7BF8D105210FF074
:100EC00085FA05287FF48CAD28460FF003FB87E5F3
:100ED000289BFF1F08B5084800F0A6F8FFF752FB53
:100EE000FFF72AFCFFF7DAFB044B1B7803B908BDB8
:100EF000BDE80840FFF748BC389CFF1F0C9AFF1F55
:100F000038B50EF047F82648264D00F0AFF82648D1
:100F100000F0ACF8254800F0A9F80D21244800F0B5
:100F200053F8244B2448912200241A731C705C60EF
:100F30009C6000F09BF8214800F098F8204800F0F1
:100F400095F8204B28469C600CF084FF05F1850045
:100F50006C672C67A5F87840A5F87A40A5F87C4026
:100F6000A5F87E40A5F88040A5F8824085F8844029
:100F70000DF0EEFC85F88C4085F88E4085F88F40AA
:100F800085F8904085F8914085F8924085F8934027
:100F900085F8944085F8954085F88D4038BD00BFB0
:100FA000189BFF1F3C9AFF1F049BFF1FF49AFF1F13
:100FB000389CFF1F289BFF1FE49AFF1F149AFF1FF6
:100FC0002C9AFF1FD49AFF1F38B504460D4600F037
:100FD0004DF800232582A383204638BD827F8A42B4
:100FE0000FD038B505460C46A97700F07DF8012CE6
:100FF00009D00DD3022C05D1084B6B610C23AB61DA
:1010000038BD704738BD064B6B610423AB6138BDFA
:10101000044B6B610423AB6138BD00BFB4BC01005D
:10102000CCBC0100ACBC0100818B8269914202D32F
:1010300000228283704710B5044600F039F870B181
:10104000A38B6269D9070BD432F8131001B10121C7
:10105000207C0EF0A3F9A38B0133A38310BD10BD38
:10106000204632F8131000F005F8F4E7002202736E
:10107000704700BF037B4BB9054B816082B01B6892
:101080000193019B03600123037302B0704700BF0B
:10109000CC9EFF1F054B82B01B680193037B019A16
:1010A00002600BB90123037302B07047CC9EFF1F8F
:1010B0000346007BA0B110B40A4A1C681268996804
:1010C00083B00192019A5A60121B8A4204D3002213
:1010D0001A7303B010BC7047002003B010BC7047F7
:1010E00001207047CC9EFF1F00230373704700BF91
:1010F0000020704790F8392090F83800101A704797
:1011000090F8383090F839209A4205D95A1C034497
:1011100080F83820187E70474FF0FF30704700BFCE
:1011200090F8383090F839209A4286BF1B18187E04
:101130004FF0FF30704700BF704700BF38B505461D
:10114000B0F85E0090B195F85D301446C3F121020D
:1011500094420CD805F13B00184422460DF0BCFC2B
:1011600095F85D30234485F85D30204638BD012078
:1011700014462871EEE700BFB0F85E306BB190F80E
:101180005D30202B07D8C218013380F85D30012074
:1011900082F83B107047012303710020704700BFA5
:1011A0000023426980F8383080F8393080F85C30AC
:1011B00080F85D3080F85E3080F85F3006CA30B469
:1011C0000D68046943662A4383660A60A370426916
:1011D00090F861301649146813441D7A5B7B01EB6B
:1011E000C5051B026D6803F4E06343F064032B60E4
:1011F00090F8623013449D7CDB7D01EBC5011B023E
:10120000496803F4E06343F064030B6021685368AA
:10121000194205D0036927225A70036904229A7182
:10122000036920225A71036980229A7030BC70478A
:1012300050F2010010B50269D378DBB2D90604463A
:101240003DD510215806D17038D503F0040303F0C2
:10125000FF02002B51D03D49626E00230B7084F8D1
:101260005D30002A5BD0904794F85D30002B56D05B
:101270002369D0229A70236994F83B201A7123695C
:10128000012284F85C200222DA7010BD304B84F811
:1012900060009C424AD02F4B9C4252D094F83910A7
:1012A00013791F29DBB207D82848007820B16018CD
:1012B000013184F8391003760223D37010BD59062A
:1012C000C3D4917801F0100101F0FF000029DDD0B6
:1012D00013F001031ED194F85C1094F85D0088426D
:1012E00081BF4B1C091984F85C3091F83B301371B5
:1012F0002369D0229A702269DEE7236984F83920B5
:10130000C0229A702369114A1979012111700222B1
:10131000DA7010BDC023937022691379CCE70122E3
:10132000002384F85D2084F83B30A1E7626994F8DB
:101330006130094913440322187A0DF05DFF2269D8
:10134000ACE7626994F861300449F3E7589CFF1FE9
:101350000088FF1F6C88FF1FBD130000C913000029
:101360000369DB7803F0200373B190F86030013338
:10137000DBB2012B80F860301AD9426990F86130F5
:101380001344187A0DF0B4BF70B5426903F0FF053D
:1013900090F8613013440446187A0DF0A9FFA36E4B
:1013A0005BB184F8385094F83900BDE870401847B4
:1013B00090F85F30002BE0D0704770BD0148FFF718
:1013C000CFBF00BF0088FF1F0148FFF7C9BF00BFA4
:1013D0006C88FF1F2DE9F047374FDFF8E0903B683E
:1013E000026982B006460093DDF800800021A02546
:1013F000D3789B065BD53B680193019BC8EB030345
:101400000F2BF5D949B1102BF2D000209070336921
:1014100080229A7002B0BDE8F087726996F8613058
:1014200013440521187A0DF0BFFF726996F86130F8
:101430001344012193F812A050460DF0B5FF092482
:10144000002150460DF0AAFF2B46013BFDD10121A2
:1014500050460DF0A3FF2B46013BFDD1013CEFD1DF
:10146000706996F8611001444FF4A0720C7A4B7BBE
:1014700009EBC4011B02496803F4E06343F0640311
:101480000B6096F862300344997CDB7D09EBC10167
:101490001B02496803F4E06343F064030B60013A04
:1014A000FDD13269D3789B064FF00101A3D401200E
:1014B00002B0BDE8F08700BFCC9EFF1F50F20100D4
:1014C000F0B503691222DA700269937803F0200301
:1014D00085B004460D46002B5ED0B42393703C4982
:1014E00022690B680093009E05E00B680193019B45
:1014F0009B1B042B42D8D37803F0200303F0FF009A
:10150000002BF2D094F85D30002B31D04FF0000E5C
:101510004FF0020C04EB0E0393F83B3013710B6891
:101520000393039F206907E09B060DD50B68029388
:10153000029BDB1B052B28D8C378DBB203F0020229
:1015400002F0FF06002AEFD080F803C02669F37886
:10155000DBB2DF0632462DD49F062BD5DB0731D414
:101560000EF1010E94F85D305FFA8EFE7345D1D80E
:1015700000201DBB002384F85E3004E090702369D6
:1015800080229A70042005B0F0BD86702369802205
:1015900004209A7005B0F0BD03F0FF06FFF71AFFB4
:1015A00010B9042005B0F0BD236984F85F60B02253
:1015B0009A7094E78023B3700420DAE726698023C9
:1015C000B370D7E7BEF1000F0CBF02200320F6E78F
:1015D000CC9EFF1F2DE9F04106690025122780F8F7
:1015E000385080F83950F770D0F810C09CF802E0FD
:1015F0000EF0200E88B00446884615461E46BEF101
:10160000000F49D0B4238CF80230784B21691A6856
:101610000092DDF800E006E01A6801920198CEEB36
:101620000000042830D8C87800F0200000F0FF0740
:101630000028F1D04FEA480242F00102D2B20A710A
:101640001A680292DDF808E0206906E01A68039241
:101650000399CEEB010105292AD8C17801F00201D6
:1016600001F0FF070029F1D04FF0020C80F803C011
:101670002269D17811F0110722D12DBB002E0CBFA9
:10168000A0238023937003E08F70236980229A70D7
:10169000384608B0BDE8F0810EF0FF07FFF79AFE6C
:1016A0000028F5D0236984F85F70B0229A70ACE707
:1016B00087702369802238469A7008B0BDE8F081AF
:1016C000802393700027E3E7012D75D0A02191704E
:1016D00021690A79BE4667464FF0A80C1A68049241
:1016E000049805E01A680592059A121A052A4AD844
:1016F000CA7802F0020202F0FF08002AF2D0CF708E
:101700002169CA78D2B212F0100F08465AD1920657
:1017100058D5013DEDB2012D49D0BEF11F0F3BD987
:101720000A79012DDAD11A680692069D05E01A6839
:101730000792079A521B052A46D8C27802F0020285
:1017400002F0FF01002AF2D00223C3702269D3788D
:10175000DBB2D9063AD49B0634D5B023BEF11F0FB5
:1017600093703FD8226904EB0E0312791A760EF1BA
:10177000010E5FFA8EFE16B1236980229A7084F8FA
:1017800039E0774684E781F80280236980229A70E5
:10179000774684F839E07BE704EB0E0291F8048089
:1017A00082F818800EF1010E5FFA8EFEB9E781F81B
:1017B00002C021690846B0E7A82191702069BE46A1
:1017C0000279B0E7774663E78170DEE71021A02356
:1017D000D170013BFDD12269937803F0F70377467E
:1017E000937055E723691B79C5E700BFCC9EFF1FA7
:1017F0000148FFF71FBD00BF0088FF1F0148FFF72A
:1018000019BD00BF6C88FF1F10B4047F4160022C1B
:10181000C26002D010BC0EF0DDBE836810BC184759
:10182000F0B4464B464A186BDC6A017911704549A1
:1018300022790A709A6A00790870002A46D059689D
:10184000C9688A423ED82168CC8B240402F1FF305B
:1018500065D4C0F30E00C883C88B80B2C882196BF0
:101860000968C88B000452D4C2F30E00C883C88B29
:10187000002480B212F1FF32C88218BF01229C629C
:10188000D96A2E4809680D6800F12404A54236D0B3
:101890000068C46814F0804F0C680D6815BF248878
:1018A00024780235013544F000440D604463196B1F
:1018B000254B09791970214912B1CA6A12791A7037
:1018C000F0BC7047521A9A620122D9E7586B196826
:1018D00005681E4C0A63CC62CC682D681C4E24F04F
:1018E00080440327B542CC6083F825701FD1037F65
:1018F0004260022BC2601ED0F0BC0EF06BBE0168CD
:1019000090F82400CC6840F000404863CFE7CC8BCF
:10191000C2F3080004F47E442043C883A7E7CC8BBD
:10192000C0F3080004F47E442043C88394E72B46A8
:101930001146F0BC18478368F0BC1847D888FF1FD1
:101940001F8000401C8000401B80004000000FFFF3
:101950000918000090E80C00F0B41C68596825686C
:10196000164F174E29432160164D17491760D66050
:1019700015611160417A154A5C180A3194F82440C7
:1019800053F8215002EBC40149680D60017A5C18DC
:1019900003EB8101247ECD6902EBC40149680D602F
:1019A000817A581803EB810390F83000596B02EBF1
:1019B000C002F0BC53681960704700BF01401F00AF
:1019C000011000380110007800001F8050F2010063
:1019D00070B4417A44680E4B05680E4E21440022D3
:1019E00091F8241003EBC10149680A60017A21448F
:1019F000097E03EBC10149680A60817A214491F8AC
:101A0000301003EBC1035B681A602E6070BC704736
:101A100050F2010001401F0000207047704700BFD6
:101A2000704700BF704700BF10B5B02104460FF0EB
:101A300021F8204610BD00BF224B10B5044640F8E7
:101A4000043B04F0D9FF04F1100004F0D5FF04F1C9
:101A50001C0004F0D1FF04F1280005F087F804F120
:101A6000380004F0C9FF04F1440005F07FF804F1E8
:101A7000540004F0C1FF04F1600005F077F804F1B0
:101A8000740005F073F804F1840005F06FF804F1B8
:101A9000940004F0B1FF002300224FF07E500A4969
:101AA00084F8A0300123E066216784F8A53084F82B
:101AB000A13084F8A23084F8A33022666266A26660
:101AC000204610BD44BE01000AD7A33C2DE9F04FCB
:101AD00095B0064668461F460C46154605F046F882
:101AE00004A805F043F896F8A23006F13809002B57
:101AF0003DD02046494604F0D7FF96F8A3301BB1ED
:101B000096F8A430002B57D1F36D336406F1280A00
:101B10005046494605F0E8F9444F06F1240B0025EC
:101B20004FF0FF385BF8044F24F00044204639465C
:101B300012F0AEFB08B12746A8460135042DF1D1BD
:101B400006EB88080021D8F82840204612F082FBD6
:101B5000A8B92046002112F09BFB28B1D8F8440018
:101B6000002112F077FB88B915B0BDE8F08F484628
:101B700006F1540104F046FF00233364BDE7002161
:101B8000D8F8440012F084FB0028E2D006F12800C7
:101B90000FC800F1004501F1004402F1004203F1D9
:101BA000004349465046B562F4623263736305F000
:101BB00015F915B0BDE8F08F494604A805F094F971
:101BC0002A686968019200236A4608A80093029176
:101BD000AB68039304A905F093F804A90CA805F0D9
:101BE0001BFA0CAA08A910A805F08AF810A96846E3
:101BF00004F0C2FF019811F0E5FC04460D4602987E
:101C000011F0E0FC22462B460FF058FA0546384604
:101C100001F1004411F0D6FC02460B46284621464D
:101C200011F070FB12F01AF830646FE700007AC40C
:101C30000120704710B5034B03600446FFF7F2FE26
:101C4000204610BD60BE010010B5064B036004467F
:101C5000FFF7E8FE20464FF438710EF00BFF2046E8
:101C600010BD00BF60BE010070B5012384B0044602
:101C700080F8A53000F1540501A804F0BDFE01A9CB
:101C8000284604F0BFFE294604F1440005F02CF973
:101C900001A804F0B1FE01A904F1B00004F0B2FE05
:101CA00001A804F0A9FE01A904F1100004F0AAFEA5
:101CB00001A804F0A1FE01A904F11C0004F0A2FE99
:101CC00004F1380601A804F097FE01A9304604F09B
:101CD00099FE0025314604F1280005F005F904F5C8
:101CE0002870294605F0CCF9294604F5F07005F076
:101CF000C7F90A4A0A4BC4F8E021C4F8F421C4F831
:101D00000822C4F81C22C4F8A032C4F8B432C4F8C3
:101D1000C832C4F8DC3204B070BD00BF6F12833A21
:101D20006F12033A10B50446FFF786FE2046194BA2
:101D300040F8B03B04F060FE04F1C00004F016FF70
:101D400004F1D00004F012FF04F1E00005F076F990
:101D500004F5907005F072F904F5B07005F06EF9B5
:101D600004F5D07005F06AF904F5F07005F066F935
:101D700004F5087005F062F904F5187005F05EF9D5
:101D800004F5287005F05AF92046FFF76DFF20464C
:101D900010BD00BF60BE01002DE9F041A4B00446B3
:101DA00004A805F04BF9684604F0E0FED4F8B00052
:101DB0004FF07C5112F0B0F84FF07C510746D4F848
:101DC000B40012F0A9F84FF07C510546D4F8B800E1
:101DD00012F0A2F804F5087605F1004307F100427D
:101DE00000F10041C4F82832C4F83C32C4F824227F
:101DF000C4F85822C4F83072C4F83802C4F840520B
:101E0000C4F84C72C4F85002C4F82C12C4F844123E
:101E1000C4F85452314604F5187814A805F0BEFAF7
:101E200004F1C00514A9404605F014F92A463146CC
:101E300014A805F013FA14A9684604F09DFED4F81E
:101E4000BC10684604F044FF04F5B07769462846A4
:101E500004F09EFE04F5D0753A46314614A805F00C
:101E600091F914A9284605F0F5F84246394614A818
:101E700005F088F914A904A805F0ECF804A928468F
:101E800005F008F904F5907604F5F072294614A8D7
:101E900005F04EF914A9304605F0DCF83046D4F8C8
:101EA000BC1005F02FF924B0BDE8F0812DE9F04316
:101EB000B5B00446684604F059FE04A805F0BEF823
:101EC00014A805F0BBF894F8A3301BB994F8A2301D
:101ED000002B52D024AD04F1C008284604F128019B
:101EE000424604F1D00904F017FF2946484604F0A1
:101EF00043FE04F5907604F528723146284605F035
:101F000017F9294604A805F0A5F804A9284605F004
:101F100027FB294614A805F09DF804F1E00714AA50
:101F20003146284605F02EF92946384605F092F844
:101F30004A463946284605F091F92946684604F094
:101F40001BFE6946404604F023FE04F5B07440468B
:101F500004F0F6FE204605F00FFA3946204605F05B
:101F6000B5F832462146284605F00CF929462046A8
:101F700005F070F835B0BDE8F08324AD284604F1D3
:101F8000D00904F0F3FD2946484604F0F5FD04F1BC
:101F9000C008AEE72DE9F04790F8A13084B00446C0
:101FA0000D469246002B5BD03031B03004F02AFD54
:101FB00004F1100805F140063146404604F11C09C1
:101FC00005F1500704F01EFD4846394604F01AFD9D
:101FD00094F8A53095F84C2084F8A420002B48D123
:101FE000D5E90089D4E92A01B8EB000069EB0101C9
:101FF00011F04CFF3D4912F043F8C4E92A89C4F8B6
:10200000BC00002112F030F938BB3A463146DAF80C
:1020100074302046FFF75AFD2046FFF7BDFE04F15D
:10202000C008204604F15407FFF740FF04F14406BE
:102030004046394604F0D2FE4146304604F09CFD4D
:10204000012339462B722B7605F10C0004F0DAFCE3
:10205000314605F11C0004F08FFD04B0BDE8F087A7
:1020600001A804F0C9FC01A904F1B00004F0CAFC05
:102070009EE7D5E90067DAF874304A4641462046C3
:10208000C4E92A67FFF722FD002104F5087004F077
:10209000F7FF002104F5B07004F0F2FF4FF07C521E
:1020A000234604F14001C3F86021C3F86421C3F85A
:1020B0006821C3F86C2110338B42F4D104F1C009BC
:1020C00004F138084846414604F1440604F00CFF88
:1020D00004F154074946304604F04EFD4146384667
:1020E00004F090FC002384F8A530A9E7002474498B
:1020F0000CF050BF0220704710B5034B036004463C
:10210000FFF790FC204610BD7CBE010010B5054BCA
:1021100003600446FFF786FC2046E8210EF0AAFC87
:10212000204610BD7CBE010030B5012385B080F88B
:10213000A530044600F1540501A804F05DFC01A996
:10214000284604F05FFC294604F1440004F0CCFE6C
:1021500001A804F051FC01A904F1B00004F052FC04
:1021600001A804F049FC01A904F1100004F04AFCA4
:1021700001A804F041FC01A904F11C0004F042FC98
:1021800004F1380501A804F037FC01A9284604F041
:1021900039FC294604F1280004F0A6FE0023C4F807
:1021A000E03005B030BD00BF2DE9F04F044683B0EC
:1021B000D4F8CC30D0F8B00000934FF07C5111F03F
:1021C000ABFE4FF07C510746D4F8B400D4F8C4807D
:1021D000D4F8C860D4F8C0A011F09EFE4FF07C5136
:1021E0008146D4F8B80011F097FE4146834607F1C6
:1021F000004011F091FE49460546304611F08CFE34
:102200000146284611F07EFD59460546009811F01A
:1022100083FE01462846D4F8BC5011F073FD2946D0
:1022200011F07AFE514611F06FFD3946C4F8C00036
:10223000504611F071FE59460190304611F06CFE87
:10224000019A0146104611F05FFD49460190009841
:1022500011F062FE019A0146104611F053FD294625
:1022600011F05AFE414611F04FFD4946C4F8C40032
:10227000504611F051FE59460190404611F04CFE77
:10228000019A0146104611F03DFD39460190009833
:1022900011F042FE019A0146104611F035FD294623
:1022A00011F03AFE314611F02FFD5946C4F8C8002E
:1022B000504611F031FE49468246404611F02CFE50
:1022C0000146504611F020FD39468046304611F057
:1022D00023FE0146404611F015FD294611F01CFE73
:1022E000009911F011FDC4F8CC0004F1C00003B056
:1022F000BDE8F04F04F024BD10B50446FFF79CFB89
:102300002046094B40F8B03B04F076FB04F1C000D6
:1023100004F02CFC04F1D00004F028FC2046FFF768
:1023200003FF204610BD00BF7CBE01002DE97043B5
:1023300090F8A33088B01BB990F8A230002B63D07E
:1023400000F1C00504462946684604F065FE04F124
:10235000740604F12802694604A804F0D1FC04A91B
:10236000304604F009FC304604F0EAFC606F11F0DE
:1023700029F90EF0F3FD11F071FC216F11F0CCFD85
:1023800011F020F9804689460EF0A4FD11F066FC9C
:102390004946064640460EF053FDE26FD4F88030C1
:1023A000C4F898208946A16FC4F89C308046C4F8D0
:1023B000941004F1940004F041FB4946404611F0AA
:1023C0004DFC3146C4F88400D4F8940011F0A4FD0B
:1023D0003146C4F88800D4F8980011F09DFD3146CC
:1023E000C4F88C00D4F89C0011F096FD04F184062A
:1023F000C4F89000304604F0A3FC3146284604F0AF
:10240000D9FB284604F09CFC08B0BDE8708300BFEF
:102410002DE9F047D0F8E0300D4690F8A1100133D7
:1024200084B004469246C0F8E03000295CD005F143
:102430003001B03004F0E6FA04F1100605F140086E
:102440004146304604F11C0705F1500904F0DAFA60
:102450003846494604F0D6FA94F8A53095F84C2051
:1024600084F8A420002B48D1D5E90067D4E92A01DB
:10247000301A67EB010111F009FD334911F000FE3C
:10248000C4E92A67C4F8BC00002111F0EDFE40BB8E
:10249000DAF874304A4641462046FFF717FB94F8B5
:1024A000A130002B4CD1204604F1C00804F15407A0
:1024B000FFF73CFF04F144064046394604F08EFC29
:1024C0004146304604F058FB012339462B722B76E7
:1024D00005F10C0004F096FA314605F11C0004F0F9
:1024E0004BFB04B0BDE8F08701A804F085FA01A910
:1024F00004F1B00004F086FA9EE7D5E90089DAF825
:1025000074303A463146C4E92A89204604F1C009AC
:1025100004F13808FFF7DAFA04F144064846414668
:1025200004F0E2FC04F154074946304604F024FB71
:102530004146384604F066FA002384F8A530C3E724
:102540002046FFF731FEAEE7002474490CF022BDAF
:10255000704700BF10B5102104460EF08BFA2046DC
:1025600010BD00BF0249034A0160C260704700BF4E
:1025700098BE01000110013870B504790CB101203A
:1025800070BD05460E48FFF7E5F90121E8790CF02A
:102590000BFFAE680B490C4802E0172A08D014461E
:1025A00031F8023F90FBF3F39E4204F10102F4D3B1
:1025B000064B53F8243043F06053EB60012070BDAC
:1025C000D888FF1F36BD0100006CDC0268BD010029
:1025D0000148FFF7FDB900BFD888FF1FF0B50546D9
:1025E0000846297983B017461C4661B10A23114673
:1025F00000932246089B0CF0B7F9001BB0FA80F05C
:10260000400903B0F0BD384EEA68F37A1BB372B6E6
:10261000F37AD807194609D5DFF8E8E0F068DEF864
:1026200000100140B161CEF800101946980709D595
:10263000DFF8D4E03069DEF80030F17A0340F3616E
:10264000CEF800304B0705D5284973690868034068
:1026500033620B6062B63368D968914207D0244870
:1026600018602449DA6042F0804018611960002146
:10267000E8790CF093FE316847F080074FF0004393
:10268000CB624F63CB6A002BFCDA8B6B84B1089A68
:102690004FF0004710190024CF624C63CB6A002B27
:1026A000FCDA8B6B02F8013B824201D03168F3E720
:1026B0000121E8790CF072FEF37A0B491A4683B1D6
:1026C000D80703D50C4A896911601A46990703D5C2
:1026D0000A4BF169F27A1960530702D5084B326A46
:1026E0001A60012003B0F0BDD888FF1F88E100E028
:1026F00001403F0000003F8000E100E004E100E015
:1027000008E100E080E100E084E100E0F8B5054682
:102710000846297917461C4651B11A463946069B88
:102720000CF0A8F9044600286DD001242046F8BD1D
:102730003A4EEA68F37A1BB372B6F37AD8071946B1
:1027400009D5DFF8FCE0F068DEF800100140B16167
:10275000CEF800101946980709D5DFF8E8E030698F
:10276000DEF80030F17A0340F361CEF800304B0719
:1027700005D52B4973690868034033620B6062B664
:102780003368D968914207D0264818602649DA6034
:1027900042F08040186119600021E8790CF0FEFDDC
:1027A00031684FF00043CB624F63C86A0028FCDAFF
:1027B0008B6B6CB1069802194FF0004410F8013B86
:1027C000CC624B63CB6A002BFCDA82428B6BF5D177
:1027D0000121E8790CF0E2FDF37A10491A46002B4A
:1027E000A3D0D80703D5114A896911601A46990701
:1027F00003D50F4BF169F27A1960530795D50D4B4C
:10280000326A1A6091E7079B1B78002B8ED0079ADB
:1028100009490A480DF0F6FF88E700BFD888FF1F76
:1028200088E100E001403F0000003F8000E100E05F
:1028300004E100E008E100E0A0BE0100948DFF1F6C
:1028400080E100E084E100E0F8B50546084629791A
:1028500017461E4681B11A4639460CF031F9044636
:1028600000286BD1069B1B78002B68D0069A35494F
:1028700035480DF0C7FF62E0344CEB68E27A1AB3DA
:1028800072B6E27AD007114609D5DFF8DCE0E068DD
:10289000DEF800100140A161CEF80010114690074B
:1028A00009D5DFF8C8E02069DEF80020E17A0240AF
:1028B000E261CEF800204A0705D52549626908681B
:1028C000024022620A6062B62168CA689A4207D052
:1028D00020480860204ACB6043F0804008610A60CD
:1028E0000021E8790CF05AFD21684FF00043CB62DB
:1028F0004F63C86A0028FCDA4FF000438A6BCB6252
:102900004E63CB6A002BFCDA8B6BE87901210CF06B
:1029100045FDE37A0D491A4683B1D80703D50F4A1E
:10292000896911601A46990703D50D4BE169E27A6E
:102930001960530702D50B4B226A1A600124204606
:10294000F8BD00BFA0BE0100948DFF1FD888FF1FF7
:1029500088E100E001403F0000003F8000E100E02E
:1029600004E100E008E100E080E100E084E100E053
:1029700008460CF041BD00BF0CF00CBB10B5064B77
:102980000360044600F51B7009F018FE2046FFF7AF
:10299000DFFD204610BD00BF04D9010010B5084B73
:1029A0000360044600F51B7009F008FE2046FFF79F
:1029B000CFFD20464FF424710EF05CF8204610BD88
:1029C00004D9010038B5044608460D4612F078FED9
:1029D0002368024629465B682046984705462046FC
:1029E0000DF0F8FE284438BD2DE9F04F4FF00108F6
:1029F00085B080F8048004468B4691469A46FFF7DE
:102A0000BBFD002800F0AA80BF4E01960DF10E0715
:102A100000974346752268212046FFF7DFFD0546F3
:102A200038B19DF80E30712B00F0BE80682B00F09D
:102A3000C480019600970123752269212046FFF783
:102A4000CDFD054638B19DF80E30712B00F0BD80EC
:102A5000682B00F0C7800F220196009701236A219E
:102A60002046FFF7BBFDA84A054638B19DF80E3059
:102A7000D72B00F01C81D42B00F0C9800F220196C7
:102A8000009701236B212046FFF7A8FD9E4A0546CB
:102A900038B19DF80E30D72B00F03C81D42B00F0DC
:102AA000D9800196009701230F226A212046FFF763
:102AB00095FD054620B19DF80E30D42B00F09D8089
:102AC0000196009701230F226B212046FFF786FD18
:102AD000054620B19DF80E30D42B00F0E68001961B
:102AE00000970123002268212046FFF777FD054665
:102AF00020B19DF80E300F2B00F039810196009720
:102B00000123002269212046FFF768FD054620B118
:102B10009DF80E300F2B00F03481019600970123B1
:102B2000002228212046FFF759FD054620B19DF8D7
:102B30000E30A02B00F02781019600970123002280
:102B400029212046FFF74AFD054620B19DF80E30A9
:102B5000A02B00F022812046FFF73AFD0026092332
:102B60002671A671E3712046FFF706FD98B1664B0A
:102B700001930DF10E030093752201236821204675
:102B8000FFF72CFD054618B19DF80E30712B2BD0A8
:102B90002046FFF71DFD5D495D480DF033FE002521
:102BA000284605B0BDE8F08F06226823CBF8002048
:102BB0008AF8003089F80080F2E70222CBF8002082
:102BC0008AF8003089F80080EAE7062169220123AB
:102BD0002846CBF800108AF8002089F8003005B0AC
:102BE000BDE8F08F0221F1E706226823CBF8002030
:102BF0008AF8003089F80060D2E704216A220123B4
:102C0000CBF800108AF8002089F80030C8E70DF1F1
:102C10000F080192CDF8008001230F221E212046CB
:102C2000FFF7DCFC18B19DF80F30492B10D001964E
:102C3000CDF8008001230F221D212046FFF7CEFC96
:102C400000283FF41BAF9DF80F30492B7FF416AFDF
:102C50000521D3E70DF10F080192CDF80080012383
:102C60000F221D212046FFF7B9FC18B19DF80F3047
:102C7000492B10D00196CDF8008001230F221E2190
:102C80002046FFF7ABFC00283FF40BAF9DF80F3058
:102C9000492B7FF406AF05216B220123CBF80010EE
:102CA0008AF8002089F800307AE70421F4E70DF172
:102CB0000F080192CDF8008001230F221E2120462B
:102CC000FFF78CFC18B19DF80F30492B6FD001969F
:102CD000CDF8008001230F221D212046FFF77EFC46
:102CE00018B19DF80F30492B61D00196CDF80080C6
:102CF0000123272219212046FFF770FC05460028F2
:102D00003FF4BCAE072179E798EE0100B8BE0100A0
:102D1000948DFF1F0DF10F080192CDF80080012363
:102D20000F221D212046FFF759FC18B19DF80F30E6
:102D3000492B3ED00196CDF8008001230F221E21A1
:102D40002046FFF74BFC18B19DF80F30492B30D0CF
:102D50000196CDF800800123272219212046FFF794
:102D60003DFC054600283FF49CAE072194E708216E
:102D700068220123CBF800108AF8002089F800307F
:102D80000EE7082122E7092128220123CBF80010B1
:102D90008AF8002089F8003002E70921292201235E
:102DA000CBF800108AF8002089F80030F8E60321FB
:102DB00024E7032170E700BFF0B40922494BC27138
:102DC000192432225021282700254FF07E56836097
:102DD000C0F8A42000230122C0F8A840C0F8B81011
:102DE00002240421C0F8BC70102744614565856544
:102DF000C56545668566C56645670665032506663D
:102E00000667C0F8B0700526036103768371C3615D
:102E1000036280F8243080F8253080F8403080F854
:102E2000783080F8943002714271C0F8AC10C0F86C
:102E3000B470C0F8C870C0F8CC700727C0F8C05094
:102E4000C0F8C450C0F8D040C0F8E450C0F8E85012
:102E5000C0F80841C0F81441C0F82841C0F8E0604B
:102E6000C0F80C61C0F8D420C0F8D810C0F8DC203D
:102E7000C0F8EC10C0F8F030C0F8F430C0F8F8201A
:102E8000C0F8FC10C0F80021C0F80411C0F81021EF
:102E9000C0F81821C0F81C11C0F82021C0F8241176
:102EA000C0F83021C0F83431C0F83821C0F83C11E6
:102EB000C0F84021C0F82C61C0F84461C0F8485106
:102EC000C0F84C51C0F85C41C0F86051C0F8644192
:102ED000C0F85871C0F85011C0F85431C0F86821DA
:102EE000F0BC704720A10700C1EBC10170B58D0097
:102EF00000242846947016460CF094F8FC2801D063
:102F0000204670BD681C0CF08DF81528F8D13446A9
:102F1000AD1B1C3628190CF085F804F8010BB442DF
:102F2000F8D1012070BD00BF0CF034B82DE9F0419C
:102F3000ADF5187D074600F5B672012366A89E49D7
:102F400009F076FC98AA9DF89C0112F8BC3D68999E
:102F500087F8700287F87832C7F8741207F51B7685
:102F600007F2792307F2862012F8011F03F8011BEC
:102F70008342F9D16D9BC7F88832304609F02EFBA9
:102F8000804666A809F01AFBB8F1000F49D00DF190
:102F90000705002406E00D2814D00A2812D00134B9
:102FA000C82C39D0304609F093FAC0B2FF2805F892
:102FB000010FF0D1304609F003FB40460DF5187DB6
:102FC000BDE8F08102AD00232B552B78232BDED0FA
:102FD00013F0DF0FDBD034AA66AB7849284612F035
:102FE00055F902287CD1764934A812F0EDF910B3D6
:102FF000744934A812F0E8F9002862D0724934A864
:1030000012F0E2F9E0B9714966A812F0DDF9B0FA00
:1030100080F040093871BAE702AD002385F8C73067
:10302000D3E73B683846DB689847804640460DF555
:10303000187DBDE8F08166A811F0E0FA3861A6E7D6
:10304000634934A812F0C0F900283FD0614934A880
:1030500012F0BAF900283ED05F4934A812F0B4F952
:10306000002848D05D4934A812F0AEF9002847D0B6
:103070005B4934A812F0A8F9002800F0978059495C
:1030800034A812F0A1F9002800F08B80564934A82A
:1030900012F09AF900287FD0544934A812F094F91C
:1030A000002873D0524934A812F08EF968BB474902
:1030B00066A812F089F9B0FA80F0400987F8250077
:1030C00065E766A811F09AFA786160E766A811F0E2
:1030D00095FA78715BE766A811F090FAB87156E737
:1030E0002A46444944480DF08DFB304609F068FA01
:1030F0004FF0000861E766A811F080FAF87146E722
:1031000066A811F07BFAB86041E73C4934A812F098
:103110005BF9002800F08885394934A812F054F989
:10312000002800F07885374934A812F04DF90028BE
:1031300000F06885344934A812F046F9002800F000
:103140005885324934A812F03FF9002800F048852C
:103150002F4934A812F038F9002800F038852D499D
:1031600034A812F031F9002800F0B9802A4934A8B7
:1031700012F02AF9002851D1144966A812F024F956
:10318000B0FA80F0400987F8400000E766A811F027
:1031900035FA87F82400FAE666A811F02FFA3862AB
:1031A000F5E666A811F02AFAF861F0E666A811F0D3
:1031B00025FA3876EBE600BF5C9CFF1FECBE0100F1
:1031C00018BF010020BF01002CBF010038BF010063
:1031D00040BF010048BF010050BF01005CBF0100BB
:1031E00068BF010078BF010088BF010098BF0100DF
:1031F000ACBF0100F8BE0100948DFF1FBCBF0100F1
:10320000D0BF0100E0BF0100F0BF010000C001001D
:1032100010C0010020C0010038C00100594934A885
:1032200012F0D2F8002800F0C984574934A812F0EF
:10323000CBF8002800F0B984544934A812F0C4F83F
:10324000002800F0A984524934A812F0BDF80028E3
:1032500000F099844F4934A812F0B6F8002800F025
:1032600089844D4934A812F0AFF8002800F0798421
:103270004A4934A812F0A8F8002800F069844849A7
:1032800034A812F0A1F8002800F05984454934A868
:1032900012F09AF8002800F04984434934A812F04B
:1032A00093F8002800F03984404934A812F08CF8D3
:1032B00000285ED03E4934A812F086F8002850D08D
:1032C0003C4934A812F080F888B93B4966A812F04E
:1032D0007BF8B0FA80F0400987F8780057E601AA39
:1032E000364966A811F0D2FF019B7B674FE634494F
:1032F00034A812F069F8002800F00684314934A897
:1033000012F062F8002800F0F5832F4934A812F07B
:103310005BF8002800F0E4832C4934A812F054F83C
:10332000002800F0D3832A4934A812F04DF8002871
:1033300000F03B82274934A812F046F8002800F03C
:103340002A82254934A812F03FF8002846D11A49AC
:1033500066A812F039F8B0FA80F0400987F89400B6
:1033600015E601AA154966A811F090FF019B3B677D
:103370000DE601AA114966A811F088FF019BFB66C2
:1033800005E600BF54C0010068C001007CC0010018
:1033900090C00100A4C00100B8C00100CCC0010071
:1033A000E0C00100F4C0010008C101001CC101001F
:1033B00030C1010044C1010038BF0100CCBF010091
:1033C00054C1010064C1010074C1010084C1010045
:1033D00094C10100A4C10100B4C10100B14934A8E5
:1033E00011F0F2FF002800F05C83AF4934A811F01F
:1033F000EBFF002800F04B83AC4934A811F0E4FF48
:10340000002800F03A83AA4934A811F0DDFF002813
:1034100000F02C83A74934A811F0D6FF002800F053
:103420001E83A54934A811F0CFFF002800F01083B7
:10343000A24934A811F0C8FF002800F00283A04977
:1034400034A811F0C1FF002800F0F4829D4934A88F
:1034500011F0BAFF002800F0E6829B4934A811F071
:10346000B3FF002800F0D882984934A811F0ACFFCF
:10347000002800F0CA82964934A811F0A5FF002860
:1034800000F0BC82934934A811F09EFF002800F0A0
:10349000AE82914934A811F097FF002800F0A08275
:1034A0008E4934A811F090FF002800F092828C49D8
:1034B00034A811F089FF002800F08482894934A8DB
:1034C00011F082FF002800F07682874934A811F0BD
:1034D0007BFF002800F06882844934A811F074FF53
:1034E000002800F05A82824934A811F06DFF0028AC
:1034F00000F04C827F4934A811F066FF002800F0EC
:103500003E827D4934A811F05FFF002800F0308230
:103510007A4934A811F058FF002800F02282784937
:1035200034A811F051FF002800F01482754934A826
:1035300011F04AFF002800F00682734934A811F008
:1035400043FF002800F0F881704934A811F03CFFD7
:10355000002800F0EA816E4934A811F035FF0028F8
:1035600000F0DC816B4934A811F02EFF002800F038
:10357000CE81694934A811F027FF002800F0C081EE
:10358000664934A811F020FF002800F0B281644998
:1035900034A811F019FF002800F0A481614934A873
:1035A00011F012FF002800F096815F4934A811F055
:1035B0000BFF002800F088815C4934A811F004FF5B
:1035C000002800F07A815A4934A811F0FDFE002845
:1035D00000F06C81574934A811F0F6FE002800F085
:1035E0005E81554934A811F0EFFE002800F05081AB
:1035F000524934A811F0E8FE002800F042815049F9
:1036000034A811F0E1FE002800F034814D4934A8BF
:1036100011F0DAFE002800F026814B4934A811F0A1
:10362000D3FE002800F01881484934A811F0CCFEE0
:10363000002800F00A81464934A811F0C5FE002890
:1036400000F0FC80434934A811F0BEFE002800F0D1
:10365000EE80414934A811F0B7FE002800F0E08068
:103660003E4934A811F0B0FE002800F0D2803C4959
:1036700034A811F0A9FE002800F0C480394934A80C
:1036800011F0A2FE002800F0B680374934A811F0EE
:103690009BFE002800F0A880344934A811F094FE65
:1036A00066E000BFC4C10100D0C10100DCC101005F
:1036B000E8C1010004C2010020C2010034C20100BF
:1036C00044C2010054C2010070C201008CC201005A
:1036D0009CC20100ACC20100BCC20100CCC201000E
:1036E000E8C20100FCC2010010C3010024C30100B4
:1036F00040C3010054C3010068C3010084C301003A
:103700009CC30100B8C30100CCC30100E0C30100A9
:10371000F4C3010010C4010028C4010048C4010022
:1037200060C401007CC4010094C40100ACC4010069
:10373000C0C40100E0C40100F8C4010018C50100C4
:1037400030C5010048C5010058C5010068C5010029
:1037500078C5010090C50100A0C50100B0C50100F9
:10376000CCC50100E0C50100F8C5010008C6010094
:10377000002832D0D04934A811F026FE30B334A846
:10378000CE4911F021FED0B966A810F037FFC7F876
:103790006801FFF7FCBB01AAC94966A811F076FDD4
:1037A000019BC7F89030FFF7F2BB01AAC44966A895
:1037B00011F06CFD019BC7F88C30FFF7E8BB2A467F
:1037C000C049C1480DF01EF8FFF7E1BB66A810F034
:1037D00015FFC7F86401FFF7DABB66A810F00EFF0B
:1037E000C7F86001FFF7D3BB66A810F007FFC7F862
:1037F0005C01FFF7CCBB66A810F000FFC7F85801CA
:10380000FFF7C5BB66A810F0F9FEC7F85401FFF733
:10381000BEBB66A810F0F2FEC7F85001FFF7B7BBB9
:1038200066A810F0EBFEC7F84C01FFF7B0BB66A826
:1038300010F0E4FEC7F84801FFF7A9BB66A810F036
:10384000DDFEC7F84401FFF7A2BB66A810F0D6FE64
:10385000C7F83801FFF79BBB66A810F0CFFEC7F88A
:103860003C01FFF794BB66A810F0C8FEC7F8400102
:10387000FFF78DBB66A810F0C1FEC7F83401FFF753
:1038800086BB66A810F0BAFEC7F83001FFF77FBB11
:1038900066A810F0B3FEC7F82C01FFF778BB66A846
:1038A00010F0ACFEC7F82801FFF771BB66A810F056
:1038B000A5FEC7F82401FFF76ABB66A810F09EFEBC
:1038C000C7F81801FFF763BB66A810F097FEC7F8AA
:1038D0001C01FFF75CBB66A810F090FEC7F8200142
:1038E000FFF755BB66A810F089FEC7F81401FFF773
:1038F0004EBB66A810F082FEC7F81001FFF747BB69
:1039000066A810F07BFEC7F80C01FFF740BB66A865
:1039100010F074FEC7F80801FFF739BB66A810F075
:103920006DFEC7F80401FFF732BB66A810F066FE13
:10393000C7F8F800FFF72BBB66A810F05FFEC7F8CA
:10394000FC00FFF724BB66A810F058FEC7F8000182
:10395000FFF71DBB66A810F051FEC7F8F400FFF793
:1039600016BB66A810F04AFEC7F8F000FFF70FBBC1
:1039700066A810F043FEC7F8EC00FFF708BB66A886
:1039800010F03CFEC7F8E800FFF701BB66A810F096
:1039900035FEC7F8E400FFF7FABA66A810F02EFE6D
:1039A000C7F8E000FFF7F3BA66A810F027FEC7F8E3
:1039B000D400FFF7ECBA66A810F020FEC7F8D800D4
:1039C000FFF7E5BA66A810F019FEC7F8DC00FFF7AC
:1039D000DEBA66A810F012FEC7F8D000FFF7D7BA1B
:1039E00066A810F00BFEC7F8CC00FFF7D0BA66A8A7
:1039F00010F004FEC7F8C800FFF7C9BA66A810F0B7
:103A0000FDFDC7F8C400FFF7C2BA66A810F0F6FDC6
:103A1000C7F8C000FFF7BBBA66A810F0EFFDC7F803
:103A2000BC00FFF7B4BA66A810F0E8FDC7F8B8000C
:103A3000FFF7ADBA66A810F0E1FDC7F8B400FFF7D4
:103A4000A6BA66A810F0DAFDC7F8B000FFF79FBA73
:103A500066A810F0D3FDC7F8AC00FFF798BA66A8C7
:103A600010F0CCFDC7F8A800FFF791BA66A810F0D7
:103A7000C5FDC7F8A400FFF78ABA01AA104966A8D5
:103A800011F004FC019BC7F8A030FFF780BA01AA2F
:103A90000B4966A811F0FAFB019BC7F89C30FFF7B1
:103AA00076BA01AA064966A811F0F0FB019BC7F897
:103AB0009830FFF76CBA00BF20C6010030C6010085
:103AC000CCBF010040C60100948DFF1F01AA5B49D5
:103AD00066A811F0DBFB019BC7F88830FFF757BAE7
:103AE00001AA564966A811F0D1FB019BC7F88430A2
:103AF000FFF74DBA01AA514966A811F0C7FB019B17
:103B0000C7F88030FFF743BA01AA4C4966A811F004
:103B1000BDFB019BFB67FFF73ABA01AA474966A8BC
:103B200011F0B4FB019BBB66FFF731BA01AA434910
:103B300066A811F0ABFB019B7B66FFF728BA01AAD0
:103B40003E4966A811F0A2FB019B3B66FFF71FBA36
:103B500001AA3A4966A811F099FB019BFB65FFF7A2
:103B600016BA01AA354966A811F090FB019BBB6506
:103B7000FFF70DBA01AA314966A811F087FB019B36
:103B80007B65FFF704BA01AA2C4966A811F07EFBF9
:103B9000019B3B65FFF7FBB901AA284966A811F014
:103BA00075FB019BFB64FFF7F2B901AA234966A8E4
:103BB00011F06CFB019BBB64FFF7E9B901AA1F4937
:103BC00066A811F063FB019B7B64FFF7E0B901AAD3
:103BD0001A4966A811F05AFB019BFB63FFF7D7B99E
:103BE00001AA164966A811F051FB019BBB63FFF7C0
:103BF000CEB901AA114966A811F048FB019B7B636D
:103C0000FFF7C5B901AA0D4966A811F03FFB019B5A
:103C10003B63FFF7BCB901AA084966A811F036FB5F
:103C2000019BFB62FFF7B3B901AA044966A811F032
:103C30002DFB019BBB62FFF7AAB900BFCCBF0100FF
:103C4000F0B589B00446FFF7B7F890F88C1261B967
:103C500080F8251001AAFFF747F918B19DF8063042
:103C6000012B06D0012009B0F0BDFFF75FF909B0C4
:103C7000F0BD029F039E049D05980699079A84F85B
:103C80002530A762E66225636063A163E263E9E72A
:103C900070B504460D46FEF765FC2046284B40F8FB
:103CA000283B02F0A9FE04F1340002F0A5FE04F165
:103CB000440002F0A1FE04F17C0002F09DFE04F13C
:103CC000880002F099FE04F1980002F095FE04F5D8
:103CD0001B7008F065FC284611F0F2FCC82801D8DA
:103CE0002B782BBB174918480CF08CFD174B07CBD2
:103CF00004F5B6751E78C4F86C012E736960AA606D
:103D000001210A200BF050FB0A21114808F0F2FCB7
:103D100038B1012384F88C322046FFF791FF20460A
:103D200070BD84F88C022046FFF78AFF204670BDE4
:103D30002A46084904F5B67011F082FAE0E700BFA0
:103D400004D9010068C60100948DFF1F98C60100C8
:103D50005C9CFF1FA8C6010070B500F51B740846E7
:103D600016460D4611F0ACFC29460246204608F0E6
:103D70009DFB20460122064908F098FB314620466B
:103D80000CF08EFD2046BDE870400CF023BD00BF56
:103D9000B4C6010070B500F51B7482B00846164623
:103DA0000D4611F08DFC29460246204608F07EFBA8
:103DB00001222046094908F079FB30460FF002FC49
:103DC000022502460B46009520460CF071FD204668
:103DD00002B0BDE870400CF0FDBC00BFB4C60100ED
:103DE00070B500F51B74084616460D4611F068FCC8
:103DF00029460246204608F059FB204601220C497C
:103E000008F054FB4EB9204605220A4908F04EFB43
:103E10002046BDE870400CF0DDBC20460422064977
:103E200008F044FB2046BDE870400CF0D3BC00BF56
:103E3000B4C60100B8C6010038BF0100F0B590F863
:103E40008C3289B005463BBB90F82530066B446B3D
:103E5000D0F828E0C76AEA6B806B8DF80230FC214D
:103E6000152303960494CDF804E06D46029705905F
:103E700006928DF800108DF801306C460DF11B068E
:103E800001E014F8011F601B0BF0E6F8B442F8D112
:103E90000126304609B0F0BD00F5B6742146D7487A
:103EA00008F03AFD224668461323D44908F0C0FCC6
:103EB00008AA029B12F8140D9DF8041085F87802E8
:103EC000C5F8743285F8701205F51B7405F2792374
:103ED00005F2862012F8011F03F8011B9842F9D160
:103EE000079BC5F88832204608F078FB06466846EE
:103EF00008F064FB002E02F0E7840222C04920464D
:103F000008F0D4FABF492046FEF75CFD0222BC4906
:103F1000204608F0CBFABC492046FEF753FD0222AA
:103F2000B749204608F0C2FAB8492046FEF74AFDD4
:103F300020460CF04FFC0222B149204608F0B6FAA8
:103F4000B3492046FEF73EFD0222AD49204608F067
:103F5000ADFA0022AC49204608F0A8FA20460CF041
:103F600039FC20460CF036FC0222A549204608F018
:103F70009DFA0B22A749204608F098FA20460CF03B
:103F800029FC02229E49204608F090FA1322A249F9
:103F9000204608F08BFA20460CF01CFC02229849BF
:103FA000204608F083FA38229C49204608F07EFA21
:103FB00020460CF00FFC02229149204608F076FAC8
:103FC00019229749204608F071FA20460CF002FCAD
:103FD00002228B49204608F069FA1B2291492046AB
:103FE00008F064FA20460CF0F5FB022284492046D2
:103FF00008F05CFA1D228C49204608F057FA20464A
:104000000CF0E8FB02227E49204608F04FFA11220C
:104010008649204608F04AFA20460CF0DBFB0222D3
:104020007749204608F042FA19228149204608F0D3
:104030003DFA20460CF0CEFB02227149204608F0E2
:1040400035FA1E227B49204608F030FA20460CF053
:10405000C1FB2A6978492846FFF77EFE20460CF00E
:10406000B9FB02226649204608F020FA0022664980
:10407000204608F01BFA20460CF0ACFB02226049F7
:10408000204608F013FA13226C49204608F00EFA75
:1040900020460CF09FFB02225949204608F006FA00
:1040A0003B226749204608F001FA20460CF092FBBB
:1040B00002225349204608F0F9F9132261492046AB
:1040C00008F0F4F920460CF085FB02224C4920460A
:1040D00008F0ECF90A225C49204608F0E7F920468E
:1040E0000CF078FB6A6959492846FFF735FE2046EF
:1040F0000CF070FB02224249204608F0D7F94249F1
:104100002046FEF75FFC02223D49204608F0CEF92A
:104110004F492046FEF756FC2A794E492846FFF7BC
:104120005FFE20460CF056FB02223549204608F07F
:10413000BDF935492046FEF745FC022230492046AC
:1041400008F0B4F944492046FEF73CFC6A7943493B
:104150002846FFF701FE20460CF03CFB02222849CE
:10416000204608F0A3F928492046FEF72BFC02223E
:104170002349204608F09AF939492046FEF722FCE7
:10418000AA7938492846FFF7E7FD20460CF022FBC4
:1041900002221B49204608F089F91B492046FEF7F8
:1041A00011FC02221649204608F080F92E492046CB
:1041B000FEF708FCEA792D492846FFF7CDFD204699
:1041C0000CF008FB02220E49204608F06FF90E4958
:1041D0002046FEF7F7FB02220949204608F066F95F
:1041E00023492046FEF7EEFBAA6822492846FFF73E
:1041F000B3FD20460CF0EEFA3EE000BF5C9CFF1FD2
:10420000B0C60100E8C6010098EE010030C7010009
:1042100048C701005CC7010068C701007CC70100F6
:10422000B8C70100D4C70100F0C7010010C80100E1
:1042300024C8010040C8010018BF010060C8010087
:1042400074C80100B0C80100C4C8010020BF01004B
:10425000D0C801002CBF0100FCC8010040BF010014
:1042600018C9010048BF010034C9010050BF010056
:1042700054C901005CBF01000222CB49204608F06E
:1042800015F9CA492046FEF79DFB0222C649204681
:1042900008F00CF9C6492046FEF794FB2A7EC54972
:1042A0002846FFF759FD20460CF094FA0222BE4939
:1042B000204608F0FBF8BD492046FEF783FB0222AA
:1042C000B949204608F0F2F8BB492046FEF77AFBD0
:1042D000EA69BA492846FFF73FFD20460CF07AFA12
:1042E0000222B149204608F0E1F8B5492046FEF720
:1042F00069FB0222AC49204608F0D8F8B1492046B3
:10430000FEF760FB0222A849204608F0CFF8AE492C
:104310002046FEF757FB0222A349204608F0C6F8C4
:10432000AA492046FEF74EFB02229F49204608F08C
:10433000BDF8A7492046FEF745FB02229A492046D0
:1043400008F0B4F8A3492046FEF73CFB0222964948
:10435000204608F0ABF8A0492046FEF733FB2A6A56
:104360009E492846FFF7F8FC20460CF033FA02225B
:104370008D49204608F09AF88C492046FEF722FB2A
:1043800002228949204608F091F895492046FEF717
:1043900019FB95F8242093492846FFF7DDFC2046B9
:1043A0000CF018FA02228049204608F07FF88E4966
:1043B0002046FEF707FB02227B49204608F076F8EC
:1043C0007A492046FEF7FEFA20460CF003FA022254
:1043D0007549204608F06AF884492046FEF7F2FA4B
:1043E00095F8252082492846FFF7FAFCAA6A8149F8
:1043F0002846FFF7CFFCEA6A7F492846FFF7CAFC48
:104400002A6B7E492846FFF7C5FC6A6B7C49284623
:10441000FFF7C0FCAA6B7B492846FFF7BBFCEA6BA1
:1044200079492846FFF7B6FC20460CF0D3F9022262
:104430005D49204608F03AF86B492046FEF7C2FA7B
:1044400002225949204608F031F858492046FEF723
:10445000B9FA20460CF0BEF902225349204608F072
:1044600025F86A492046FEF7ADFA02224E49204659
:1044700008F01CF866492046FEF7A4FA6A6F654901
:104480002846FFF787FC20460CF0A4F90222464993
:10449000204608F00BF854492046FEF793FA022212
:1044A0004149204608F002F840492046FEF78AFAC2
:1044B00020460CF08FF902223B49204607F0F6FF18
:1044C00055492046FEF77EFA95F840205349284684
:1044D000FFF786FC6A6C52492846FFF75BFCAA6C22
:1044E00050492846FFF756FCEA6C4F492846FFF72B
:1044F00051FC2A6D4D492846FFF74CFC6A6D4C492A
:104500002846FFF747FCAA6D4A492846FFF742FCB8
:10451000EA6D49492846FFF73DFC2A6E474928467F
:10452000FFF738FC6A6E46492846FFF733FCAA6E4F
:1045300044492846FFF72EFCEA6E43492846FFF718
:1045400029FC2A6F41492846FFF724FC20460CF03D
:1045500041F902221449204607F0A8FF22492046CB
:10456000FEF730FA02221049204607F09FFF0F495C
:104570002046FEF727FA20460CF02CF902220A49C1
:10458000204607F093FF32492046FEF71BFA95F8C4
:10459000782030492846FFF723FCEA6F2E49284649
:1045A000FFF7F8FB5AE000BFB0C6010098EE01002B
:1045B00064C9010068BF0100A4C9010078BF0100FF
:1045C000D0C9010068C70100E8C9010010CA010094
:1045D00020CA010030CA010040CA010088BF0100A2
:1045E00050CA010098BF0100E8C6010098CA010046
:1045F000ACBF0100BCBF0100D0BF0100E0BF0100A3
:10460000F0BF010000C0010010C00100ACCA0100F1
:10461000C8CA010020C0010014CB010038C001004D
:1046200054C0010068C001007CC0010090C00100BE
:10463000A4C00100B8C00100CCC00100E0C001006E
:10464000F4C0010008C101001CC1010030C101001B
:1046500034CB010044C1010054C10100D5F88020D1
:10466000D4492846FFF796FBD5F88420D24928463E
:10467000FFF790FBD5F88820D0492846FFF78AFB42
:10468000D5F88C20CE492846FFF784FBD5F890203A
:10469000CC492846FFF77EFB20460CF09BF802220F
:1046A000C949204607F002FFC8492046FEF78AF9AB
:1046B0000222C549204607F0F9FEC5492046FEF70B
:1046C00081F920460CF086F80222BF49204607F007
:1046D000EDFEC0492046FEF775F995F89420BE49D5
:1046E0002846FFF77DFBD5F89820BC492846FFF700
:1046F00051FBD5F89C20BA492846FFF74BFBD5F86B
:10470000A020B8492846FFF745FB20460CF062F888
:104710000222AD49204607F0C9FEAC492046FEF70B
:1047200051F90222A849204607F0C0FEA8492046B8
:10473000FEF748F90222A449204607F0B7FEAA492D
:104740002046FEF73FF902229F49204607F0AEFEC1
:104750009F492046FEF736F920460CF03BF802222E
:104760009949204607F0A2FEA0492046FEF72AF903
:10477000D5F8A4209E492846FFF7EEFA20460CF013
:1047800029F802229049204607F090FE90492046E1
:10479000FEF718F902228C49204607F087FE95495A
:1047A0002046FEF70FF9D5F8A82093492846FFF7D1
:1047B000D3FA20460CF00EF802228349204607F077
:1047C00075FE83492046FEF7FDF802227E49204609
:1047D00007F06CFE89492046FEF7F4F802227A4978
:1047E000204607F063FE86492046FEF7EBF80222DA
:1047F0007549204607F05AFE82492046FEF7E2F846
:1048000002227149204607F051FE7F492046FEF7FB
:10481000D9F802226C49204607F048FE7B49204621
:10482000FEF7D0F802226849204607F03FFE78499B
:104830002046FEF7C7F802226349204607F036FEFD
:1048400074492046FEF7BEF802225F49204607F071
:104850002DFE71492046FEF7B5F8D5F8AC206F491A
:104860002846FFF779FA20460BF0B4FF022256499A
:10487000204607F01BFE56492046FEF7A3F8022209
:104880005149204607F012FE65492046FEF79AF886
:1048900002224D49204607F009FE62492046FEF7F4
:1048A00091F802224849204607F000FE5E49204662
:1048B000FEF788F802224449204607F0F7FD5B49DD
:1048C0002046FEF77FF802223F49204607F0EEFD22
:1048D00057492046FEF776F8D5F8B02055492846C6
:1048E000FFF73AFA20460BF075FF022236492046C0
:1048F00007F0DCFD36492046FEF764F80222324913
:10490000204607F0D3FD4C492046FEF75BF8022213
:104910002D49204607F0CAFD48492046FEF752F8C7
:1049200002222949204607F0C1FD45492046FEF7ED
:1049300049F802222449204607F0B8FD41492046A3
:10494000FEF740F802222049204607F0AFFD3E491D
:104950002046FEF737F8D5F8B4203C492846FFF743
:10496000FBF920460BF036FF02221749204607F0DC
:104970009DFD16492046FEF725F8022212492046E1
:1049800007F094FD12492046FEF71CF802220E495A
:10499000204607F08BFD2E492046FEF713F8022231
:1049A0000949204607F082FD09492046FEF70AF82A
:1049B00050E000BF64C1010074C1010084C1010066
:1049C00094C10100A4C10100B0C60100E8C6010005
:1049D00098EE010048CB0100B4C10100C4C1010040
:1049E000D0C10100DCC1010060CB010074CB01002B
:1049F000E8C10100A0CB010004C20100D0CB01003E
:104A0000F0CB010010CC010030CC010050CC0100F3
:104A100070CC010090CC0100B0CC010020C201009C
:104A2000CCCC0100E8CC01000CCD010030CD010060
:104A300054CD010034C2010078CD010094CD0100B5
:104A4000A4CD0100B4CD0100C4CD010044C20100D9
:104A5000D4CD010020460BF0BDFE0222D2492046F3
:104A600007F024FDD1492046FDF7ACFFD5F8B8206A
:104A7000CF492846FFF770F920460BF0ABFE022223
:104A8000C949204607F012FDCA492046FDF79AFFA2
:104A90000222C549204607F009FDC7492046FDF717
:104AA00091FFD5F8BC20C5492846FFF755F92046A7
:104AB0000BF090FE0222BC49204607F0F7FCBD49EE
:104AC0002046FDF77FFF0222B749204607F0EEFCA3
:104AD000BB492046FDF776FF0222B349204607F086
:104AE000E5FCB8492046FDF76DFF0222AE4920469D
:104AF00007F0DCFCB4492046FDF764FF0222AA4916
:104B0000204607F0D3FCB1492046FDF75BFF0222A7
:104B1000A549204607F0CAFCAD492046FDF752FFE3
:104B20000222A149204607F0C1FCAA492046FDF710
:104B300049FF02229C49204607F0B8FCA6492046BE
:104B4000FDF740FF02229849204607F0AFFCA34939
:104B50002046FDF737FF02229349204607F0A6FCC6
:104B60009F492046FDF72EFF02228F49204607F07D
:104B70009DFC9C492046FDF725FFD5F8C0209A49A9
:104B80002846FFF7E9F820460BF024FE022286496A
:104B9000204607F08BFC87492046FDF713FF0222D1
:104BA0008149204607F082FC90492046FDF70AFF24
:104BB00002227D49204607F079FC8D492046FDF709
:104BC00001FF02227849204607F070FC89492046FF
:104BD000FDF7F8FE02227449204607F067FC86497B
:104BE0002046FDF7EFFE02226F49204607F05EFCEB
:104BF00082492046FDF7E6FE02226B49204607F077
:104C000055FC7F492046FDF7DDFE0222664920461D
:104C100007F04CFC7B492046FDF7D4FE0222624996
:104C2000204607F043FC78492046FDF7CBFE0222E0
:104C30005D49204607F03AFC74492046FDF7C2FE64
:104C4000D5F8C42072492846FFF786F820460BF0B5
:104C5000C1FD02225449204607F028FC5549204650
:104C6000FDF7B0FE02225049204607F01FFC6949BB
:104C70002046FDF7A7FE02224B49204607F016FC0E
:104C800065492046FDF79EFE02224749204607F06F
:104C90000DFC62492046FDF795FE0222424920465E
:104CA00007F004FC5E492046FDF78CFE02223E49D7
:104CB000204607F0FBFB5B492046FDF783FED5F855
:104CC000C82059492846FFF747F820460BF082FDD7
:104CD00002223549204607F0E9FB36492046FDF718
:104CE00071FE02223049204607F0E0FB4F49204682
:104CF000FDF768FE02222C49204607F0D7FB4C49FD
:104D00002046FDF75FFE02222749204607F0CEFB32
:104D100048492046FDF756FE02222349204607F067
:104D2000C5FB45492046FDF74DFE02221E4920469F
:104D300007F0BCFB41492046FDF744FED5F8CC20E6
:104D40003F492846FFF708F820460BF043FD0222B2
:104D50001549204607F0AAFB3A492046FDF732FEE6
:104D600002221149204607F0A1FB12492046FDF717
:104D700029FE02220C49204607F098FB32492046C2
:104D8000FDF720FE20460BF025FD022206492046B5
:104D900007F08CFB07492046FDF714FE022202496A
:104DA000204607F083FB51E0B0C60100E8CD0100CA
:104DB00054C2010098EE0100A0CB010070C20100B6
:104DC0002CCE010044CE010064CE010084CE01004F
:104DD000A4CE0100C0CE0100DCCE0100F8CE01005F
:104DE00014CF010034CF01008CC2010050CF01006C
:104DF0006CCF01008CCF0100ACCF0100CCCF010003
:104E0000E8CF010008D0010028D0010048D00100FF
:104E10009CC20100CCCC0100E8CC01000CCD01000B
:104E200030CD010054CD0100ACC2010078CD0100AD
:104E300094CD0100A4CD0100B4CD0100C4CD01008A
:104E4000BCC20100E8C6010064D00100D24920467E
:104E5000FDF7B8FD0222D149204607F027FBD049D3
:104E60002046FDF7AFFD0222CC49204607F01EFB8D
:104E7000CC492046FDF7A6FD0222C849204607F08E
:104E800015FBC9492046FDF79DFD0222C349204676
:104E900007F00CFBC5492046FDF794FD0222BF49EF
:104EA000204607F003FBC2492046FDF78BFD022296
:104EB000BA49204607F0FAFABE492046FDF782FDBE
:104EC0000222B649204607F0F1FABB492046FDF719
:104ED00079FDD5F8D020B9492846FEF73DFF204698
:104EE0000BF078FC0222AD49204607F0DFFAB44906
:104EF0002046FDF767FD0222A849204607F0D6FAB2
:104F00001822B049204607F0D1FA20460BF062FC87
:104F10000222A249204607F0C9FAAB492046FDF714
:104F200051FD02229D49204607F0C0FAA7492046BC
:104F3000FDF748FD02229949204607F0B7FAA44937
:104F40002046FDF73FFDD5F8DC20A2492846FEF7B4
:104F500003FF20460BF03EFC02229049204607F05A
:104F6000A5FA97492046FDF72DFD02228B492046E0
:104F700007F09CFA98492046FDF724FD0222874954
:104F8000204607F093FA95492046FDF71BFDD5F81A
:104F9000D82093492846FEF7DFFE20460BF01AFC86
:104FA00002227E49204607F081FA85492046FDF716
:104FB00009FD02227949204607F078FA89492046FE
:104FC000FDF700FD02227549204607F06FFA864979
:104FD0002046FDF7F7FCD5F8D42084492846FEF793
:104FE000BBFE20460BF0F6FB02226C49204607F080
:104FF0005DFA7F492046FDF7E5FC0222674920461D
:1050000007F054FA7B492046FDF7DCFC0222634995
:10501000204607F04BFA78492046FDF7D3FC0222E0
:105020005E49204607F042FA74492046FDF7CAFC63
:1050300002225A49204607F039FA71492046FDF705
:10504000C1FC02225549204607F030FA6D4920463E
:10505000FDF7B8FC02225149204607F027FA6A49B9
:105060002046FDF7AFFC02224C49204607F01EFA0D
:1050700066492046FDF7A6FC02224849204607F073
:1050800015FA63492046FDF79DFC0222434920465C
:1050900007F00CFA5F492046FDF794FC02223F49D5
:1050A000204607F003FA5C492046FDF78BFCD5F853
:1050B000E0205A492846FEF74FFE20460BF08AFBB7
:1050C00002223649204607F0F1F93D492046FDF716
:1050D00079FC02223149204607F0E8F95049204680
:1050E000FDF770FC02222D49204607F0DFF94D49FB
:1050F0002046FDF767FC02222849204607F0D6F932
:1051000049492046FDF75EFC02222449204607F06B
:10511000CDF946492046FDF755FC02221F4920469D
:1051200007F0C4F942492046FDF74CFC02221B4916
:10513000204607F0BBF93F492046FDF743FCD5F870
:10514000E4203D492846FEF707FE20460BF042FBCF
:1051500002221249204607F0A9F919492046FDF715
:1051600031FC02220D49204607F0A0F933492046C0
:10517000FDF728FC02220949204607F097F930493B
:105180002046FDF71FFC02220449204607F08EF955
:105190002C49204658E000BF80D00100B0C6010075
:1051A00094D00100A4D00100B0D00100BCD0010017
:1051B000CCD00100DCD00100ECD00100CCC2010059
:1051C00098EE0100CCCC0100FCD001001CD1010004
:1051D0003CD10100E8C201005CD1010078D101009E
:1051E000FCC20100A8D10100BCD1010010C3010024
:1051F000ECD1010004D2010014D2010024D201003C
:1052000034D2010040D201004CD201005CD2010036
:105210006CD201007CD201008CD2010024C30100B9
:1052200078CD01009CD20100ACD20100BCD20100BB
:10523000CCD20100DCD2010040C3010050CF0100FC
:10524000ECD20100F8D20100FDF7BCFB0222D549E7
:10525000204607F02BF9D4492046FDF7B3FB022284
:10526000D049204607F022F9D0492046FDF7AAFB95
:10527000D5F8E820CE492846FEF76EFD20460BF013
:10528000A9FA0222C749204607F010F9C949204669
:10529000FDF798FB0222C349204607F007F9C649EB
:1052A0002046FDF78FFB0222BE49204607F0FEF89C
:1052B000C2492046FDF786FB0222BA49204607F084
:1052C000F5F8BF492046FDF77DFB0222B54920468F
:1052D00007F0ECF8BB492046FDF774FB0222B14908
:1052E000204607F0E3F8B8492046FDF76BFB0222A1
:1052F000AC49204607F0DAF8B4492046FDF762FBD6
:105300000222A849204607F0D1F8B1492046FDF70E
:1053100059FBD5F8EC20AF492846FEF71DFD204685
:105320000BF058FA02229F49204607F0BFF8A14926
:105330002046FDF747FB02229A49204607F0B6F8BF
:10534000A5492046FDF73EFB02229649204607F07C
:10535000ADF8A2492046FDF735FB022291492046CF
:1053600007F0A4F89E492046FDF72CFB02228D4948
:10537000204607F09BF89B492046FDF723FB0222BD
:105380008849204607F092F897492046FDF71AFB16
:10539000D5F8F02095492846FEF7DEFC20460BF0B4
:1053A00019FA02227F49204607F080F890492046EA
:1053B000FDF708FB02227B49204607F077F87D497C
:1053C0002046FDF7FFFA02227649204607F06EF8E4
:1053D00088492046FDF7F6FA02227249204607F076
:1053E00065F874492046FDF7EDFA20460BF0F2F916
:1053F00002226C49204607F059F87F492046FDF704
:10540000E1FA02226749204607F050F87B4920461E
:10541000FDF7D8FA02226349204607F047F8784999
:105420002046FDF7CFFA02225E49204607F03EF8FB
:1054300074492046FDF7C6FA02225A49204607F071
:1054400035F871492046FDF7BDFAD5F8F4206F49CB
:105450002846FEF781FC20460BF0BCF90222514998
:10546000204607F023F853492046FDF7ABFA022205
:105470004C49204607F01AF865492046FDF7A2FA84
:1054800002224849204607F011F81D2261492046B2
:1054900007F00CF820460BF09DF902224149204606
:1054A00007F004F81D225C49204606F0FFFF204665
:1054B0000BF090F902223B49204606F0F7FF1E222E
:1054C0005649204606F0F2FF20460BF083F9D5F846
:1054D000002153492846FEF73FFC20460BF07AF99D
:1054E00002223049204606F0E1FF002231492046E1
:1054F00006F0DCFF20460BF06DF902222949204618
:1055000006F0D4FF18224749204606F0CFFF204678
:105510000BF060F902222349204606F0C7FF2D2236
:105520004149204606F0C2FF20460BF053F9D5F85A
:10553000FC203E492846FEF70FFC20460BF04AF9B6
:1055400002221849204606F0B1FF002219492046E0
:1055500006F0ACFF20460BF03DF90222114920462F
:1055600006F0A4FF11223249204606F09FFF204694
:105570000BF030F902220B49204606F097FF2D224E
:105580002C49204606F092FF20460BF023F9D5F86F
:10559000F82029492846FEF7DFFB20460BF01AF9D0
:1055A00002224BE0B0C6010004D3010010D3010079
:1055B00054C3010098EE01001CD3010034D3010054
:1055C00044D3010054D3010064D3010070D301001F
:1055D0007CD3010068C301008CD30100A8D3010073
:1055E000BCD30100D0D30100E4D3010084C3010087
:1055F000E8C60100F8D3010080D0010018D40100F2
:1056000024D4010034D4010044D401009CC301001F
:10561000CCCC010054D401001CD101003CD10100CC
:10562000B8C301005CD1010074D40100CCC30100F7
:10563000A8D10100A4D40100E0C30100D249204652
:1056400006F034FF1422D149204606F02FFF2046F1
:105650000BF0C0F80222CC49204606F027FF0A22B0
:10566000CB49204606F022FF20460BF0B3F8022279
:10567000C549204606F01AFF0B22C649204606F00F
:1056800015FF20460BF0A6F80222BF49204606F07F
:105690000DFFC1492046FDF795F90222BA4920467F
:1056A00006F004FFBD492046FDF78CF90222B649F9
:1056B000204606F0FBFEBA492046FDF783F9022298
:1056C000B149204606F0F2FEB6492046FDF77AF9C8
:1056D0000222AD49204606F0E9FEB3492046FDF717
:1056E00071F9D5F80421B1492846FEF735FB20466B
:1056F0000BF070F80222A449204606F0D7FEAC4910
:105700002046FDF75FF902229F49204606F0CEFEB3
:10571000A8492046FDF756F902229B49204606F08B
:10572000C5FEA5492046FDF74DF9022296492046BF
:1057300006F0BCFEA1492046FDF744F90222924939
:10574000204606F0B3FE9E492046FDF73BF90222B3
:105750008D49204606F0AAFE9A492046FDF732F907
:10576000D5F8082198492846FEF7F6FA20460BF0AE
:1057700031F802228449204606F098FE8C492046E2
:10578000FDF720F902228049204606F08FFE8F495E
:105790002046FDF717F902227B49204606F086FED7
:1057A0008B492046FDF70EF902227749204606F084
:1057B0007DFE88492046FDF705F902227249204600
:1057C00006F074FE84492046FDF7FCF802226E497B
:1057D000204606F06BFE81492046FDF7F3F80222D1
:1057E0006949204606F062FE7D492046FDF7EAF849
:1057F00002226549204606F059FE7A492046FDF707
:10580000E1F802226049204606F050FE7649204623
:10581000FDF7D8F802225C49204606F047FE73499E
:105820002046FDF7CFF8D5F80C2171492846FEF740
:1058300093FA20460AF0CEFF02225349204606F092
:1058400035FE5B492046FDF7BDF802224E49204651
:1058500006F02CFE67492046FDF7B4F802224A49BB
:10586000204606F023FE64492046FDF7ABF80222ED
:105870004549204606F01AFE60492046FDF7A2F889
:1058800002224149204606F011FE5D492046FDF7FF
:1058900099F802223C49204606F008FE5949204664
:1058A000FDF790F802223849204606F0FFFD5649E0
:1058B0002046FDF787F802223349204606F0F6FD20
:1058C00052492046FDF77EF802222F49204606F075
:1058D000EDFD4F492046FDF775F8D5F810214D49EB
:1058E0002846FEF739FA20460AF074FF02222649BC
:1058F000204606F0DBFD48492046FDF763F802220A
:105900002149204606F0D2FD29492046FDF75AF8E4
:1059100002221D49204606F0C9FD40492046FDF7F8
:1059200051F802221849204606F0C0FD20492046C1
:10593000FDF748F820460AF04DFF022212492046A2
:1059400006F0B4FD1A492046FDF73CF802220E4944
:10595000204606F0ABFD32492046FDF733F802221F
:105960000949204606F0A2FD2E492046FDF72AF8F7
:1059700002220549204606F099FD2B492046FDF7F5
:1059800021F8022252E000BFB0C60100ECD10100B4
:10599000D4D40100E0D4010064D3010070D301002D
:1059A0007CD30100ECD40100FCD40100F4C301005D
:1059B00098EE010078CD01009CD20100ACD201002C
:1059C0000CD501001CD5010010C401001CD301003E
:1059D0002CD501003CD501004CD5010058D5010063
:1059E00068D5010074D5010080D501008CD5010077
:1059F00028C401008CD301009CD50100B0D5010062
:105A0000C4D50100D8D50100ECD5010000D60100B5
:105A100014D6010048C40100E8C6010028D60100E0
:105A200080D0010094D00100A4D00100D2492046CA
:105A300006F03CFDD1492046FCF7C4FF0222CE49C6
:105A4000204606F033FDCE492046FCF7BBFF02227C
:105A5000C949204606F02AFDCA492046FCF7B2FF94
:105A60000222C549204606F021FDC7492046FCF721
:105A7000A9FF0222C049204606F018FDC34920466E
:105A8000FCF7A0FFD5F81421C1492846FEF764F9B8
:105A900020460AF09FFE0222B749204606F006FD86
:105AA000BC492046FCF78EFF0222B349204606F08F
:105AB000FDFCB9492046FCF785FF0222AE4920468D
:105AC00006F0F4FCB5492046FCF77CFF0222AA4907
:105AD000204606F0EBFCB2492046FCF773FF022299
